{
  "contractName": "Election",
  "abi": [
    {
      "inputs": [],
      "stateMutability": "nonpayable",
      "type": "constructor"
    },
    {
      "anonymous": false,
      "inputs": [
        {
          "indexed": false,
          "internalType": "uint256",
          "name": "id",
          "type": "uint256"
        },
        {
          "indexed": false,
          "internalType": "string",
          "name": "name",
          "type": "string"
        },
        {
          "indexed": false,
          "internalType": "uint256",
          "name": "votecount",
          "type": "uint256"
        }
      ],
      "name": "electionupdated",
      "type": "event"
    },
    {
      "inputs": [
        {
          "internalType": "uint256",
          "name": "",
          "type": "uint256"
        }
      ],
      "name": "candidates",
      "outputs": [
        {
          "internalType": "uint256",
          "name": "id",
          "type": "uint256"
        },
        {
          "internalType": "string",
          "name": "name",
          "type": "string"
        },
        {
          "internalType": "uint256",
          "name": "voteCount",
          "type": "uint256"
        }
      ],
      "stateMutability": "view",
      "type": "function",
      "constant": true
    },
    {
      "inputs": [],
      "name": "candidatesCount",
      "outputs": [
        {
          "internalType": "uint256",
          "name": "",
          "type": "uint256"
        }
      ],
      "stateMutability": "view",
      "type": "function",
      "constant": true
    },
    {
      "inputs": [
        {
          "internalType": "address",
          "name": "",
          "type": "address"
        }
      ],
      "name": "votedornot",
      "outputs": [
        {
          "internalType": "bool",
          "name": "",
          "type": "bool"
        }
      ],
      "stateMutability": "view",
      "type": "function",
      "constant": true
    },
    {
      "inputs": [
        {
          "internalType": "uint256",
          "name": "_id",
          "type": "uint256"
        }
      ],
      "name": "Vote",
      "outputs": [],
      "stateMutability": "nonpayable",
      "type": "function"
    }
  ],
  "bytecode": "0x608060405234801561001057600080fd5b506100556040518060400160405280600c81526020017f446f6e616c64205472756d70000000000000000000000000000000000000000081525061009e60201b60201c565b6100996040518060400160405280600c81526020017f42617261636b204f62616d61000000000000000000000000000000000000000081525061009e60201b60201c565b6101b7565b60026000815480929190600101919050555060405180606001604052806002548152602001828152602001600081525060016000600254815260200190815260200160002060008201518160000155602082015181600101908051906020019061010992919061011a565b506040820151816002015590505050565b828054600181600116156101000203166002900490600052602060002090601f016020900481019282601f1061015b57805160ff1916838001178555610189565b82800160010185558215610189579182015b8281111561018857825182559160200191906001019061016d565b5b509050610196919061019a565b5090565b5b808211156101b357600081600090555060010161019b565b5090565b610502806101c66000396000f3fe608060405234801561001057600080fd5b506004361061004c5760003560e01c80631bc57022146100515780632d35a8a2146100ab5780633477ee2e146100c9578063dcd6a5cd1461017e575b600080fd5b6100936004803603602081101561006757600080fd5b81019080803573ffffffffffffffffffffffffffffffffffffffff1690602001909291905050506101ac565b60405180821515815260200191505060405180910390f35b6100b36101cc565b6040518082815260200191505060405180910390f35b6100f5600480360360208110156100df57600080fd5b81019080803590602001909291905050506101d2565b6040518084815260200180602001838152602001828103825284818151815260200191508051906020019080838360005b83811015610141578082015181840152602081019050610126565b50505050905090810190601f16801561016e5780820380516001836020036101000a031916815260200191505b5094505050505060405180910390f35b6101aa6004803603602081101561019457600080fd5b8101908080359060200190929190505050610294565b005b60006020528060005260406000206000915054906101000a900460ff1681565b60025481565b6001602052806000526040600020600091509050806000015490806001018054600181600116156101000203166002900480601f0160208091040260200160405190810160405280929190818152602001828054600181600116156101000203166002900480156102845780601f1061025957610100808354040283529160200191610284565b820191906000526020600020905b81548152906001019060200180831161026757829003601f168201915b5050505050908060020154905083565b6000803373ffffffffffffffffffffffffffffffffffffffff1673ffffffffffffffffffffffffffffffffffffffff16815260200190815260200160002060009054906101000a900460ff1615610336576040517f08c379a00000000000000000000000000000000000000000000000000000000081526004018080602001828103825260228152602001806104ab6022913960400191505060405180910390fd5b600160008281526020019081526020016000206002016000815480929190600101919050555060016000803373ffffffffffffffffffffffffffffffffffffffff1673ffffffffffffffffffffffffffffffffffffffff16815260200190815260200160002060006101000a81548160ff0219169083151502179055507f3c841f91385f410e6f12269c9a0c0eb656e360f1e2d6f91144cfd51a10a2a3188160016000848152602001908152602001600020600101600160008581526020019081526020016000206002015460405180848152602001806020018381526020018281038252848181546001816001161561010002031660029004815260200191508054600181600116156101000203166002900480156104975780601f1061046c57610100808354040283529160200191610497565b820191906000526020600020905b81548152906001019060200180831161047a57829003601f168201915b505094505050505060405180910390a15056fe596f75206861766520766f74656420666f7220746865207061727469636970616e74a26469706673582212204f0a9ff15184f55509bd2c635bdad0484499d7f50d3527525e2af8f3f735060464736f6c63430007000033",
  "immutableReferences": {},
  "source": "// SPDX-License-Identifier: MIT\n\npragma solidity 0.7.0;\n\ncontract Election {\n    // Model a Candidate\n\n    struct Candidate {\n      uint id;\n      string name;\n      uint voteCount;\n    }\n\n    // Store Account that has voted\n    mapping(address => bool) public votedornot;\n\n    // Store Candidate\n    // Fetch Candidate\n\n    mapping(uint => Candidate) public candidates;\n\n    uint public candidatesCount;\n\n    // voted event\n     event electionupdated(\n       uint id,\n       string name,\n       uint votecount);\n\n    constructor() {\n      addCandidate(\"Donald Trump\");\n      addCandidate(\"Barack Obama\");\n    }\n\n    function addCandidate(string memory name) private {\n        candidatesCount++;\n        candidates[candidatesCount] = Candidate(candidatesCount, name, 0);\n    }\n    \n    function Vote(uint _id) public {\n        // the person has not Vote\n        require(!votedornot[msg.sender], \"You have voted for the participant\");\n        \n        // Increase the vote count of the person\n        \n        candidates[_id].voteCount++;\n        \n        votedornot[msg.sender] = true;\n        \n        emit electionupdated(_id, candidates[_id].name, candidates[_id].voteCount);\n        \n    }\n    \n}\n",
  "sourcePath": "/home/one/Desktop/MajorProject/contracts/Election.sol",
  "compiler": {
    "name": "solc",
    "version": "0.7.0+commit.9e61f92b.Emscripten.clang"
  },
  "schemaVersion": "3.3.4",
  "updatedAt": "2021-02-23T17:19:05.275Z",
  "networkType": "ethereum",
  "devdoc": {
    "kind": "dev",
    "methods": {},
    "version": 1
  },
  "userdoc": {
    "kind": "user",
    "methods": {},
    "version": 1
  }
}